:1000000012C038C363C32AC0C3C328C027C026C0D8
:1000100025C024C023C022C021C020C086C31EC06A
:100020001DC01CC01BC011241FBECFE5D4E0DEBF25
:10003000CDBF11E0A0E6B0E0E6E8FFE002C0059029
:100040000D92A230B107D9F721E0A2E0B1E001C0E2
:100050001D92AA33B207E1F7B1D193C7D1CF88E49B
:1000600080B981B1836081B9089516BE94EA96BFC4
:1000700006B607FEFDCF91B1987F983079F483B929
:1000800084E886BF06B607FEFDCF91B1987F983110
:1000900039F081E0903429F480E0089581E00895FA
:1000A00080E0089583B984E886BF06B607FEFDCFD9
:1000B00091B1987F81E0983209F480E0089584EC52
:1000C00086BF06B607FEFDCF83B1089584E886BFDC
:1000D00006B607FEFDCF83B1089584E986BF089573
:1000E000CF93DF93C82FC1DF80E0DCDF8C2F8160EE
:1000F000BCDFE5DFC82FD0E0DC2FCC27E7DFC82B43
:10010000ECDFCE0195958795959587959595879583
:100110009595879595958795DF91CF91089585B7AA
:100120008A6085BF8BB7806C8BBF089585B588606A
:1001300085BD85B58F7B85BD8FEF83BD85B5876018
:1001400085BD89B7806489BF0895CF93DF93C82F99
:10015000D92F80E98ADF81E0A5DF80E986DF88E1A9
:10016000A1DFBBDF80E981DF83E09CDF8D2F9ADF99
:100170008C2F98DF81E979DFA2DFA8DFAEDFDF9186
:10018000CF91089580E487B98EE886B9089580916B
:1001900014018370806487B910920701369A8091A8
:1001A00007018823E1F380911401813059F018F0A0
:1001B000823079F01FC024B135B130930F01209304
:1001C0000E0125C024B135B13093130120931201E3
:1001D0001EC084B195B19695879596958795992778
:1001E0008D3F910578F08CEF90E090931101809312
:1001F000100105C08F5F80931401833058F0109276
:10020000140108959093110180931001F8CF8F5F2E
:1002100080931401089581EA8FBD8CE08EBD1BBCD4
:100220001ABC19BC18BC0895DDD284E690E0E8D26F
:1002300016DF80E955DF8BE690E0E2D2A3DF6FDFC7
:1002400080E095E582DF72DFE6DF789487B3876030
:1002500087BB81B3806F81BB82B38F7082BB82B357
:100260008C6082BBC2988FEF91E0DCD5982F990FFC
:10027000890F80931501089586E790E0C1D282E04E
:10028000809304018FB58F778FBD1BBC1ABC19BC3E
:1002900018BCB998C09885B78F78806285BF85B73C
:1002A000806885BF889585B78F7785BF08951F9330
:1002B000CF93DF93E7E3F1E01081D181C281682F12
:1002C00070E08091150190E0B2D5612F70E08091CF
:1002D000150190E00196ABD56D2F70E0809115016E
:1002E00090E00296A4D56C2F70E08091150190E00B
:1002F00003969DD56091150170E06F5F7F4F8FEF82
:1003000091E095D5DF91CF911F91089580910E01D5
:1003100090910F01853B22E0920720F082B3806F1D
:1003200082BB17C0853922E0920728F082B3806E25
:1003300082BB94980EC08137924038F082B3806CB3
:1003400082BB82B38F7C82BB04C0979A82B38F78C2
:1003500082BB80910901882311F0C29A0895C29846
:100360000895CF93C09103012C2F30E040911001EC
:10037000509111018FEF90E0841B950B821793072A
:1003800028F010920201CC3F59F402C0CC3F21F476
:1003900081E08093020109C080910201811105C0B2
:1003A00081E08C0F8093030104C08FEF8C0F80934A
:1003B000030188D283708C0FCF9108955F926F9262
:1003C0007F928F929F92AF92BF92CF92DF92EF92E5
:1003D000FF920F931F93CF93DF9326DF82E487B9B9
:1003E00098E000E0809107018823E1F324B135B162
:1003F0002235324018F40F5F10920701915091F7A7
:100400000730D0F081E08093080184B195B19F93CB
:100410008F9382E890E09F938F9387E191E09F9381
:100420008F935FD287E191E0EBD126DF0F900F90A1
:100430000F900F900F900F9080B387E191E0E0D183
:1004400081E0809306018BE990E0DAD182B3806F7E
:1004500082BB9FE52AEE80E0915020408040E1F78A
:1004600000C0000082B38F7082BBC09A772473945F
:10047000612C10E0C0E0D0E00F2EF0E1CF2EF7E2CB
:10048000DF2EF02D0F2EFDEB8F2EF0E09F2EF02DA6
:100490000F2EF7E1EF2EF1E0FF2EF02D0F2EFBEAED
:1004A000AF2EF0E0BF2EF02D0F2EF4E65F2EF02DD4
:1004B0009E01329522952F7023273F702327A7E4B2
:1004C000B3E0ACD196958795969587959695879547
:1004D0008C9D90018D9D300D9C9D300D1124C21777
:1004E000D30709F071C080E9FBDD90930D01809383
:1004F0000C0182E9F5DD80930A0190930B012091B4
:100500000601222349F1209111012F93209110011E
:100510002F93209113012F93209112012F9320915B
:100520000F012F9320910E012F939F938F93809112
:100530000D018F9380910C018F93BF92AF92FF9228
:10054000EF92CFD1C7015CD18DB79EB70E960FB693
:10055000F8949EBF0FBE8DBF80910C0190910D014C
:100560008130954540F086E0861520F480E09FDEDE
:1005700083DE6EC0639480910E0190910F018235ED
:1005800022E09207C8F49F938F939F928F92FF92DD
:10059000EF92A7D1C70134D10F900F900F900F9019
:1005A0000F900F90043020F081E081DE65DE50C0B6
:1005B0000F5FC0E0D0E008C0002321F00150C0E090
:1005C000D0E002C0C0E0D0E0E2DD171117C0C9DE04
:1005D00090E09BBD8ABD99BD88BD209112013091EC
:1005E0001301A9E8B8E81AD196958795969587954D
:1005F0009695879577247394780E10E08091050185
:100600008130F9F49E013695279536952795ABE70D
:10061000B4E104D196958795589E9001599E300D6E
:100620001124C217D30769F4839B0AC082B38F7069
:1006300082BBC298109205018BB780688BBF01C046
:1006400065DE88E08A95F1F7000021961F5F30CFC4
:1006500080E090E0DF91CF911F910F91FF90EF909C
:10066000DF90CF90BF90AF909F908F907F906F90D2
:100670005F9008951F920F920FB60F9211242F933F
:100680003F934F935F936F937F938F939F93AF931A
:10069000BF93EF93FF9381E080930901809106015E
:1006A000882319F08FED90E0ABD0FF91EF91BF91CF
:1006B000AF919F918F917F916F915F914F913F91FA
:1006C0002F910F900FBE0F901F9018951F920F92B1
:1006D0000FB60F9211242F933F934F935F936F9315
:1006E0007F938F939F93AF93BF93EF93FF938091EB
:1006F0000601882319F083EF90E082D08BB78F77C3
:100700008BBF81E080930501FF91EF91BF91AF9185
:100710009F918F917F916F915F914F913F912F9119
:100720000F900FBE0F901F9018951F920F920FB64B
:100730000F9211242F933F938F939F9324B135B140
:100740008091160190E08217930738F424B135B1F7
:10075000281B390B2530310558F424B135B1281741
:10076000390750F424B135B1821B930B059720F063
:1007700084B195B18093160181E0809307019F9128
:100780008F913F912F910F900FBE0F901F90189552
:100790001F920F920FB60F9211248F93EF93FF9336
:1007A000809137018F3F31F0E7E3F1E080818F5F87
:1007B000808310C0E7E3F1E0108281818F3F21F058
:1007C00081818F5F818306C0E7E3F1E0118282813E
:1007D0008F5F8283FF91EF918F910F900FBE0F90EB
:1007E0001F90189510BC83E389B988E18AB986E81F
:1007F00080BD08955D9BFECF8CB980E090E00895A8
:10080000CF93DF93EC018881882329F02196F2DFD2
:1008100089918111FCCFDF91CF910895A29FB00102
:10082000B39FC001A39F01D0B29F700D811D112401
:10083000911D08958F929F92AF92BF92CF92DF92B7
:10084000EF92FF92CF93DF93EC01688179818A81E7
:100850009B81611571058105910521F464E279EDB3
:100860008BE597E02DE133EF41E050E005D34901FE
:100870005A019B01AC01A7EAB1E41AD36B017C01D8
:10088000ACEEB4EFA50194011FD3DC01CB018C0DBC
:100890009D1DAE1DBF1DB7FF03C00197A109B04844
:1008A00088839983AA83BB839F77DF91CF91FF9041
:1008B000EF90DF90CF90BF90AF909F908F90089572
:1008C000B9DF089580E690E0B5DF0895A0E0B0E0DC
:1008D0008093600090936100A0936200B0936300E6
:1008E0000895AEE0B0E0E6E7F4E000C30D891E89AC
:1008F00086E08C831A8309838FEF9FE79E838D8325
:10090000AE01475E5F4F6F89788DCE01019608D0AA
:10091000EF81F885E00FF11F10822E96E4E002C30C
:10092000ABE0B0E0E5E9F4E0D3C26C017B018A0101
:10093000FC0117821682838181FFBFC1CE0101961F
:100940003C01F6019381F70193FD859193FF81911D
:100950007F01882309F4ADC1853239F493FD859177
:1009600093FF81917F01853221F4B60190E0C0D1DF
:10097000E8CF912C212C312CFFE1F315D8F08B32EC
:1009800079F038F4803279F08332A1F4232D20619C
:100990001DC08D3261F0803369F4232D216016C0B3
:1009A000832D8260382EE32DE4603E2E2AC0F32D85
:1009B000F8601DC037FC2DC020ED280F2A3040F014
:1009C0008E32B9F436FC75C1232D2064322E19C045
:1009D00036FE06C08AE0989E200D1124922E11C08A
:1009E000EAE02E9E200D1124222EF32DF0623F2EE0
:1009F00008C08C3621F4832D8068382E02C08836DA
:100A000041F4F70193FD859193FF81917F0181115D
:100A1000B3CF982F9F7D9554933028F40C5F1F4FD0
:100A20009FE399830DC0833631F0833771F08335AE
:100A300009F055C020C0F801808189830E5F1F4FE7
:100A400088248394912C530112C02801F2E04F0EA8
:100A5000511CF801A080B18036FE03C0692D70E002
:100A600002C06FEF7FEFC50138D14C018201F32D39
:100A7000FF773F2E15C0280122E0420E511CF801DD
:100A8000A080B18036FE03C0692D70E002C06FEF18
:100A90007FEFC50117D14C01F32DF0683F2E820185
:100AA00033FC19C0822D90E088169906A0F4B60197
:100AB00080E290E01DD12A94F5CFF50137FC8591B5
:100AC00037FE81915F01B60190E012D121102A9486
:100AD00021E0821A91088114910479F7E1C08436EB
:100AE00011F0893639F5F80137FE07C06081718150
:100AF000828193810C5F1F4F08C060817181072E36
:100B0000000C880B990B0E5F1F4FF32DFF763F2EC5
:100B100097FF09C090958095709561957F4F8F4F95
:100B20009F4FF0683F2E2AE030E0A3011DD1882EB0
:100B3000861844C0853731F4232D2F7EB22E2AE04B
:100B400030E025C0932D997FB92E8F36C1F018F46F
:100B5000883579F0AEC0803719F0883721F0A9C008
:100B6000E92FE061BE2EB4FE0DC0FB2DF460BF2E58
:100B700009C034FE0AC0292F2660B22E06C028E024
:100B800030E005C020E130E002C020E132E0F801B1
:100B9000B7FE07C060817181828193810C5F1F4F16
:100BA00006C06081718180E090E00E5F1F4FA3015D
:100BB000DBD0882E8618FB2DFF773F2E36FE0DC02A
:100BC000232D2E7FA22E891458F434FE0BC032FC44
:100BD00009C0832D8E7EA82E05C0B82CA32C03C07F
:100BE000B82C01C0B92CA4FE0FC0FE01E80DF11D08
:100BF0008081803321F49A2D997EA92E09C0A2FE0E
:100C000006C0B394B39404C08A2D867809F0B394D7
:100C1000A3FC10C0A0FE06C0B21480F4280C922CD5
:100C20009B180DC0B21458F4B60180E290E060D079
:100C3000B394F8CFB21418F42B1802C0982C212CBE
:100C4000A4FE0FC0B60180E390E052D0A2FE16C011
:100C5000A1FC03C088E790E002C088E590E0B601FF
:100C60000CC08A2D867851F0A1FE02C08BE201C033
:100C700080E2A7FC8DE2B60190E03AD0891430F40E
:100C8000B60180E390E034D09A94F8CF8A94F301CF
:100C9000E80DF11D8081B60190E02AD08110F6CFD9
:100CA000222009F44ECEB60180E290E021D02A94B1
:100CB000F7CFF6018681978102C08FEF9FEF2B96C9
:100CC000E2E122C1FC010590615070400110D8F7AB
:100CD000809590958E0F9F1F0895FC016150704084
:100CE00001900110D8F7809590958E0F9F1F089561
:100CF0000F931F93CF93DF93FB01238121FD03C04B
:100D00008FEF9FEF2CC022FF16C0468157812481B0
:100D100035814217530744F4A081B1819D012F5FB3
:100D20003F4F318320838C93268137812F5F3F4F44
:100D30003783268314C08B01EC01FB010084F1850D
:100D4000E02D0995892BE1F6D80116968D919C919D
:100D50001797019617969C938E931697CE01DF9165
:100D6000CF911F910F910895FA01AA27283051F1D0
:100D7000203181F1E8946F936E7F6E5F7F4F8F4FCC
:100D80009F4FAF4FB1E03ED0B4E03CD0670F781F2B
:100D9000891F9A1FA11D680F791F8A1F911DA11D10
:100DA0006A0F711D811D911DA11D20D009F4689449
:100DB0003F912AE0269F11243019305D3193DEF6F1
:100DC000CF010895462F4770405D4193B3E00FD0A7
:100DD000C9F7F6CF462F4F70405D4A3318F0495D92
:100DE00031FD4052419302D0A9F7EACFB4E0A69575
:100DF0009795879577956795BA95C9F70097610597
:100E0000710508959B01AC010A2E069457954795EC
:100E100037952795BA95C9F7620F731F841F951FE1
:100E2000A01D0895A8E1B0E042E050E006C00196A0
:100E3000272F12D010C0DC01CB01FC01E199FECFBD
:100E400006C0FFBBEEBBE09A31960DB20D92415049
:100E50005040B8F70895262FE199FECF9FBB8EBB77
:100E6000E09A01970DB2021631F02DBB0FB6F8943F
:100E7000E29AE19A0FBE0895052E97FB16F40094AE
:100E80000FD057FD05D05BD007FC02D046F408C058
:100E900050954095309521953F4F4F4F5F4F0895A6
:100EA00090958095709561957F4F8F4F9F4F0895D6
:100EB000B5DCA59F900DB49F900DA49F800D911D52
:100EC00011240895B7FFF4CFF3DF821B930B08952D
:100ED0002F923F924F925F926F927F928F929F924A
:100EE000AF92BF92CF92DF92EF92FF920F931F9338
:100EF000CF93DF93CDB7DEB7CA1BDB0B0FB6F894E9
:100F0000DEBF0FBECDBF09942A88398848885F8428
:100F10006E847D848C849B84AA84B984C884DF8099
:100F2000EE80FD800C811B81AA81B981CE0FD11D7D
:100F30000FB6F894DEBF0FBECDBFED010895A1E25C
:100F40001A2EAA1BBB1BFD010DC0AA1FBB1FEE1F43
:100F5000FF1FA217B307E407F50720F0A21BB30B8E
:100F6000E40BF50B661F771F881F991F1A9469F70A
:100F700060957095809590959B01AC01BD01CF0166
:060F80000895F894FFCF74
:100F86000100000053746172740A0048657265209E
:100F96004920616D0A0053687574646F776E21216C
:100FA6000A00556E646572766F6C746167652E20F3
:100FB60056626174203D2025690A004C6F67676997
:100FC6006E67204163746976650A00302C25692CAA
:100FD60025692C25692C25692C25690A00556E641E
:100FE6006572766F6C746167652064657465637499
:100FF60065642C2056424154203D2025690A004C48
:1010060054383634322050474F4F44204661696C7D
:10101600210A00427574746F6E207075736865647A
:021026000A00BE
:00000001FF
